:020000040800F2
:1000000000000220DD640008A71A0008AD1A0008ED
:10001000B31A0008B91A0008BF1A0008000000004F
:10002000000000000000000000000000E160000887
:10003000C51A00080000000031630008BD5B00081D
:100040002D6500082D6500082D6500082D65000848
:100050002D6500082D6500082D6500082D65000838
:100060002D6500082D6500082D6500082D65000828
:100070002D6500082D6500082D6500082D65000818
:10008000D31A00082D6500082D6500082D650008AD
:100090002D6500082D6500082D6500082D650008F8
:1000A0002D6500082D6500082D6500082D650008E8
:1000B0002D6500082D6500082D6500082D650008D8
:1000C0002D6500082D6500082D6500082D650008C8
:1000D0002D6500082D6500082D6500082D650008B8
:1000E0002D6500082D6500082D6500082D650008A8
:1000F0002D6500082D6500082D6500082D65000898
:100100002D6500082D650008E11A00082D6500081E
:100110002D6500082D6500082D6500082D65000877
:100120002D6500082D6500082D6500082D65000867
:100130002D6500082D6500082D6500082D65000857
:100140002D6500082D6500082D6500082D65000847
:100150002D6500082D6500082D6500082D65000837
:100160002D6500082D6500082D6500082D65000827
:100170002D6500082D6500082D65000800000000B1
:080180002D6500082D65000843
:1001900081F0004102E000BF83F0004330B54FEA38
:1001A00041044FEA430594EA050F08BF90EA020FA5
:1001B0001FBF54EA000C55EA020C7FEA645C7FEA38
:1001C000655C00F0E2804FEA5454D4EB5555B8BF5B
:1001D0006D420CDD2C4480EA020281EA030382EACC
:1001E000000083EA010180EA020281EA0303362D5E
:1001F00088BF30BD11F0004F4FEA01314FF4801C31
:100200004CEA113102D0404261EB410113F0004F42
:100210004FEA03334CEA133302D0524263EB4303F9
:1002200094EA050F00F0A780A4F10104D5F1200E97
:100230000DDB02FA0EFC22FA05F2801841F10001F2
:1002400003FA0EF2801843FA05F359410EE0A5F1C6
:1002500020050EF1200E012A03FA0EFC28BF4CF0F7
:10026000020C43FA05F3C01851EBE37101F00045AD
:1002700007D54FF0000EDCF1000C7EEB00006EEBBA
:100280000101B1F5801F1BD3B1F5001F0CD3490844
:100290005FEA30004FEA3C0C04F101044FEA44529B
:1002A00012F5800F80F09A80BCF1004F08BF5FEA22
:1002B000500C50F1000041EB045141EA050130BD02
:1002C0005FEA4C0C404141EB0101013C28BFB1F514
:1002D000801FE9D291F0000F04BF01460020B1FA5F
:1002E00081F308BF2033A3F10B03B3F120020CDA32
:1002F0000C3208DD02F1140CC2F10C0201FA0CF010
:1003000021FA02F10CE002F11402D8BFC2F1200C74
:1003100001FA02F120FA0CFCDCBF41EA0C0190402A
:10032000E41AA2BF01EB0451294330BD6FEA040473
:100330001F3C1CDA0C340EDC04F11404C4F120025E
:1003400020FA04F001FA02F340EA030021FA04F370
:1003500045EA030130BDC4F10C04C4F1200220FAC7
:1003600002F001FA04F340EA0300294630BD21FA05
:1003700004F0294630BD94F0000F83F4801306BFCB
:1003800081F480110134013D4EE77FEA645C18BFBF
:100390007FEA655C29D094EA050F08BF90EA020F56
:1003A00005D054EA000C04BF1946104630BD91EA4E
:1003B000030F1EBF0021002030BD5FEA545C05D151
:1003C0004000494128BF41F0004130BD14F5800490
:1003D0003CBF01F5801130BD01F0004545F0FE4104
:1003E00041F470014FF0000030BD7FEA645C1ABF39
:1003F000194610467FEA655C1CBF0B46024650EA70
:10040000013406BF52EA033591EA030F41F400219B
:1004100030BD00BF90F0000F04BF0021704730B521
:100420004FF4806404F132044FF000054FF00001F6
:1004300050E700BF90F0000F04BF0021704730B5B7
:100440004FF4806404F1320410F0004548BF40428C
:100450004FF000013EE700BF42004FEAE2014FEAE1
:1004600031014FEA02701FBF12F07F4393F07F4FBC
:1004700081F06051704732F07F4208BF704793F0BF
:100480007F4F04BF41F40021704730B54FF46074D2
:1004900001F0004521F000411CE700BF50EA0102D5
:1004A00008BF704730B54FF000050AE050EA01027E
:1004B00008BF704730B511F0004502D5404261EBEE
:1004C00041014FF4806404F132045FEA915C3FF42F
:1004D000D8AE4FF003025FEADC0C18BF03325FEACC
:1004E000DC0C18BF033202EBDC02C2F1200300FA7D
:1004F00003FC20FA02F001FA03FE40EA0E0021FAA2
:1005000002F11444BDE600BF4FF0FF3C06E000BF1F
:100510004FF0010C02E000BF4FF0010C4DF804CD8C
:100520004FEA410C7FEA6C5C4FEA430C18BF7FEA4C
:100530006C5C1BD001B050EA410C0CBF52EA430C7A
:1005400091EA030F02BF90EA020F0020704710F1FA
:10055000000F91EA030F58BF994208BF90422CBF89
:10056000D8176FEAE37040F0010070474FEA410C82
:100570007FEA6C5C02D150EA013C07D14FEA430CA0
:100580007FEA6C5CD6D152EA033CD3D05DF8040B11
:10059000704700BF8446104662468C461946634643
:1005A00000E000BF01B5FFF7B7FF002848BF10F11A
:1005B000000F01BD4DF808EDFFF7F4FF0CBF01205F
:1005C00000205DF808FB00BF4DF808EDFFF7EAFFDB
:1005D00034BF012000205DF808FB00BF4DF808ED96
:1005E000FFF7E0FF94BF012000205DF808FB00BF8B
:1005F0004DF808EDFFF7CEFF94BF012000205DF815
:1006000008FB00BF4DF808EDFFF7C4FF34BF012021
:1006100000205DF808FB00BF53B94AB9002908BFA4
:1006200000281CBF4FF0FF314FF0FF3000F00CB836
:10063000ADF1080C6DE904CE05F07AFFDDF804E0B9
:10064000DDE9022304B07047704700BF0348044B44
:10065000834202D0034B03B1184770473400002097
:1006600034000020000000000548064B1B1AD90F7B
:1006700001EBA301491002D0034B03B118477047A7
:1006800034000020340000200000000010B5064CAB
:10069000237843B9FFF7DAFF044B13B10448AFF3F3
:1006A00000800123237010BD3400002000000000F2
:1006B0006C68000808B5054B1BB105490548AFF348
:1006C0000080BDE80840FFF7CFBF00BF000000007A
:1006D000380000206C68000880B582B000AF7860F8
:1006E000174B1B681B68002B0CBF01230023DBB2D8
:1006F0001A46144B1A700FE0134800F079FA00F014
:100700008BF80F4B1B681B68002B14BF01230023C1
:10071000DBB21A460D4B1A700A4B1B78DBB2002B6A
:10072000EAD1084B00221A70786800F011F8002016
:1007300000F0F7F9002318460837BD4680BD00BF1A
:10074000B068000800000020580000205000002081
:1007500080B582B000AF7860074B01221A60074B6A
:1007600000221A7000F0CBF8054800F05FFA002371
:1007700018460837BD4680BD7800002000000020E4
:100780005400002080B582B000AF7860396001F07D
:1007900099FF00F0C7FE00F0B9F801F04FF801F042
:1007A00035F800F009FF00F05FFF00F0AFFF094BE4
:1007B0001B6800221A6000F09BF80020B7EE000AC8
:1007C00000F0C6F8044800F013FA00231846083772
:1007D000BD4680BDB06800085400002080B483B0DE
:1007E00000AF786039607B683A689A6100BF0C3767
:1007F000BD465DF8047B704780B483B000AF78607D
:1008000039603B681A047B689A6100BF0C37BD46AB
:100810005DF8047B70470000B0B586B000AF304B88
:100820001B681846FFF706FE2E4BD3E90423FFF79B
:10083000CBFE0346002B07D0294B1B68002B03DBA4
:10084000284BD3E9002303E04FF000024FF00003F0
:10085000C7E90223224B1B681846FFF7EBFD04464D
:100860000D46204BD3E902014FF000021E4BFFF76B
:1008700093FC02460B4620462946FFF7B9FE034685
:10088000002B03D0164B00221A6004E0144B1B68A7
:100890000133134A1360154B7B604FF000024FF099
:1008A0000003D7E90201FFF785FE0346002B03D1C1
:1008B0004FF480537B6101E000237B617B69194623
:1008C0007868FFF78BFF7B69DB4303F4805319469D
:1008D0007868FFF791FF00BF1837BD46B0BD00BF75
:1008E0007C000020080000200000F03F000C0240C7
:1008F00080B400AF00BFBD465DF8047B704780B494
:1009000000AF00BFBD465DF8047B704780B400AF08
:1009100000BFBD465DF8047B704700BF80B582B064
:1009200000AF7860034800F081F900BF0837BD468A
:1009300080BD00BF5800002080B582B000AF786055
:100940007868FFF7C9FE00BF0837BD4680BD0000CC
:1009500080B588B000AF87ED010A386000214C48AF
:1009600000F02FF9F861FB69002B0AD04FF050031B
:1009700083F31188BFF36F8FBFF34F8FBB6100BF4D
:10098000FEE70021434800F01CF9F861FB69002BE9
:100990000AD04FF0500383F31188BFF36F8FBFF37A
:1009A0004F8F7B6100BFFEE73B4B28221A613A4B19
:1009B00000229A61384B80229A82374B374A07CA05
:1009C00003C31A7000223649334800F077F8F86103
:1009D000FB69002B0AD04FF0500383F31188BFF35B
:1009E0006F8FBFF34F8F3B6100BFFEE72D4B00229F
:1009F0001A602D4B00221A60D7ED017A9FED2B7AF9
:100A000067EE877AFCEEE77A17EE902A264B5A605B
:100A1000254B01229A60234B1B681A46224BDA6051
:100A2000234B244A92E803001860043319800233F0
:100A30000A0C1A7020491C4800F07EF8F861FB6926
:100A4000002B0AD04FF0500383F31188BFF36F8F50
:100A5000BFF34F8FFB6000BFFEE74FF47A7112487F
:100A600000F08BF8F861FB69002B0AD04FF05003BF
:100A700083F31188BFF36F8FBFF34F8FBB6000BF4D
:100A8000FEE703F0CBFE00BF2037BD4680BD00BFB0
:100A900058000020540000205C00002084680008FA
:100AA00039090008A40000208400002000007A44D6
:100AB00094000020906800081D09000880B588B0E7
:100AC00002AFF860B9607A60FB68002B01D10123A6
:100AD00023E0F968FB68988AFB681B69FA6818329A
:100AE000019200937B680246B86803F0E0FC7861ED
:100AF000FB689B69002B0AD14FF0500383F31188E8
:100B0000BFF36F8FBFF34F8F3B6100BFFEE77B6981
:100B1000012B14BF01230023DBB218461837BD4652
:100B200080BD80B582B000AF7860002003F004FE85
:100B300000BF0837BD4680BD90B585B002AF786074
:100B400039607B6803F110007B6859687B689A689C
:100B50007B68DC683B680093234604F0CDFC0246CA
:100B60007B681A607B681B68002B01D0002300E0C3
:100B7000012318460C37BD4690BD90B585B002AF35
:100B8000786039607B68002B16D07B681B68002B6F
:100B900012D07B681C6803F053FF02463B68009349
:100BA00000230121204604F003FD0346012B14BF5E
:100BB00001230023DBB200E0012318460C37BD46B9
:100BC00090BD80B582B000AF786039603B6819464F
:100BD0000A2002F0D0FE02467B681A607B68002B78
:100BE00001D0002300E0012318460837BD4680BD30
:100BF00080B582B000AF78607B68002B03D07B6843
:100C00001B68002B01D101230CE07B681B684FF0AF
:100C1000FF31184603F05CF90346012B14BF012392
:100C20000023DBB218460837BD4680BD80B582B0D0
:100C300000AF78607B68002B03D07B681B68002BBB
:100C400001D101230CE07B681868002300220021F9
:100C500002F0C4FE0346012B14BF01230023DBB2C4
:100C600018460837BD4680BD80B400AF044BDB6832
:100C70001B0A03F007031846BD465DF8047B704766
:100C800000ED00E080B483B000AF0346FB7197F93C
:100C90000730002B0BDBFB7903F01F02074997F9A4
:100CA00007305B09012000FA02F241F8232000BF5F
:100CB0000C37BD465DF8047B704700BF00E100E0E3
:100CC00080B483B000AF03463960FB7197F90730F9
:100CD000002B0ADB3B68DAB20C4997F907301201A6
:100CE000D2B20B4483F800230AE03B68DAB2084929
:100CF000FB7903F00F03043B1201D2B20B441A76C6
:100D000000BF0C37BD465DF8047B704700E100E092
:100D100000ED00E080B489B000AFF860B9607A609F
:100D2000FB6803F00703FB61FB69C3F10703042BB6
:100D300028BF0423BB61FB690433062B02D9FB697E
:100D4000033B00E000237B614FF0FF32BB6902FAF6
:100D500003F3DA43BB681A407B699A404FF0FF31D6
:100D60007B6901FA03F3D9437B680B4013431846B0
:100D70002437BD465DF8047B7047000080B485B021
:100D800000AFF860B9607A600D4ABB6813441B7805
:100D90001A46FB6813441B6823F0C0020849BB686D
:100DA0000B441B781946FB680B4419467B681343B8
:100DB0000B6000BF1437BD465DF8047B704700BF71
:100DC000B468000880B485B000AFF860B9607A609C
:100DD0000D4ABB6813441B781A46FB6813441B6812
:100DE00023F490720849BB680B441B781946FB68D2
:100DF0000B4419467B6813430B6000BF1437BD4694
:100E00005DF8047B704700BFB468000880B485B00B
:100E100000AFF860B9607A600D4ABB6813441B7874
:100E20001A46FB6813441B6823F400720849BB6828
:100E30000B441B781946FB680B4419467B68134327
:100E40000B6000BF1437BD465DF8047B704700BFE0
:100E5000B468000880B485B000AFF860B9607A600B
:100E60000D4ABB6813441B781A46FB6813441B6881
:100E700023F480620849BB680B441B781946FB6861
:100E80000B4419467B6813430B6000BF1437BD4603
:100E90005DF8047B704700BFB468000880B485B07B
:100EA00000AFF860B9607A600D4ABB6813441B78E4
:100EB0001A46FB6813441B6823F4C0520849BB68F8
:100EC0000B441B781946FB680B4419467B68134397
:100ED0000B6000BF1437BD465DF8047B704700BF50
:100EE000B468000880B485B000AFF860B9607A607B
:100EF0000D4ABB6813441B781A46FB6813441B68F1
:100F000023F4C0420849BB680B441B781946FB68B0
:100F10000B4419467B6813430B6000BF1437BD4672
:100F20005DF8047B704700BFB468000880B485B0EA
:100F300000AFF860B9607A600D4ABB6813441B7853
:100F40001A46FB6813441B6823F440320849BB6807
:100F50000B441B781946FB680B4419467B68134306
:100F60000B6000BF1437BD465DF8047B704700BFBF
:100F7000B468000880B485B000AFF860B9607A60EA
:100F80000D4ABB6813441B781A46FB6813441B6860
:100F900023F060620849BB680B441B781946FB6864
:100FA0000B4419467B6813430B6000BF1437BD46E2
:100FB0005DF8047B704700BFB468000880B483B05C
:100FC00000AF786039600C4A3B6813441B781A46BE
:100FD0007B6813445B6908493A680A4412781146F1
:100FE0007A680A4423F00403536100BF0C37BD46FE
:100FF0005DF8047B704700BFB468000880B483B01C
:1010000000AF78607B681B6823F080027B681A6001
:1010100000BF0C37BD465DF8047B704780B483B0D9
:1010200000AF78607B681B6823F040027B681A6021
:1010300000BF0C37BD465DF8047B704780B483B0B9
:1010400000AF786039607B68DB6823F0FE023B68A4
:101050001A437B68DA6000BF0C37BD465DF8047B3D
:10106000704780B483B000AF78607B68DB6823F0A2
:1010700001027B68DA6000BF0C37BD465DF8047B77
:101080007047000080B400AF054B1B68044A43F46E
:101090008033136000BFBD465DF8047B704700BF1E
:1010A0000038024080B400AF074B1B6803F40033E4
:1010B000B3F5003F0CBF01230023DBB21846BD4649
:1010C0005DF8047B704700BF0038024080B483B0F5
:1010D00000AF7860064B9B6823F0030204497B68ED
:1010E00013438B6000BF0C37BD465DF8047B70472F
:1010F0000038024080B400AF044B9B6803F00C033F
:101100001846BD465DF8047B704700BF00380240BA
:1011100080B483B000AF7860064B9B6823F0F00288
:1011200004497B6813438B6000BF0C37BD465DF8F4
:10113000047B70470038024080B483B000AF786011
:10114000064B9B6823F4E05204497B6813438B6091
:1011500000BF0C37BD465DF8047B70470038024085
:1011600080B483B000AF7860064B9B6823F4604284
:1011700004497B6813438B6000BF0C37BD465DF8A4
:10118000047B70470038024080B400AF054B1B68F9
:10119000044A43F08073136000BFBD465DF8047BD2
:1011A000704700BF0038024080B400AF074B1B6897
:1011B00003F00073B3F1007F0CBF01230023DBB207
:1011C0001846BD465DF8047B704700BF00380240FA
:1011D00080B485B000AFF860B9607A603B600D4BB9
:1011E0005A680D4B1340F968BA6811437A68920146
:1011F0000A43084913434B60064B5B6823F44032B3
:1012000004493B6813434B6000BF1437BD465DF88B
:10121000047B7047003802400080BFFF80B485B077
:1012200000AF7860084B1A6B07497B6813430B6368
:10123000054B1A6B7B681340FB60FB6800BF1437DB
:10124000BD465DF8047B70470038024080B485B02D
:1012500000AF7860084B1A6C07497B6813430B6436
:10126000054B1A6C7B681340FB60FB6800BF1437AA
:10127000BD465DF8047B70470038024080B485B0FD
:1012800000AF7860084B5A6C07497B6813434B6486
:10129000054B5A6C7B681340FB60FB6800BF14373A
:1012A000BD465DF8047B70470038024080B487B0CB
:1012B00000AF78603960174A3B68DBB2023352F8FE
:1012C00023203B681B0CDB4302EA03013B681B0C39
:1012D0003B613B6993FAA3F3FB60FB687B617B692D
:1012E000002B01D1202303E07B69B3FA83F3DBB247
:1012F0001A467B6803FA02F206483B68DBB20A43EF
:10130000023340F8232000BF1C37BD465DF8047B44
:10131000704700BF0038014080B483B000AF7860F0
:10132000064B1B6823F0070204497B6813430B60DC
:1013300000BF0C37BD465DF8047B7047003C02409F
:1013400080B400AF044B1B6803F007031846BD468A
:101350005DF8047B704700BF003C024080B483B05E
:1013600000AF7860064B1B6823F4804204497B6819
:1013700013430B6000BF0C37BD465DF8047B70471C
:101380000070004080B483B000AF786039607B6843
:101390005B6823F010023B681A437B685A6000BF09
:1013A0000C37BD465DF8047B704780B483B000AF56
:1013B00078607B68DB6843F400527B68DA6000BFCA
:1013C0000C37BD465DF8047B704780B483B000AF36
:1013D00078607B681B6923F490427B681A617B68A4
:1013E0005B6923F02A027B685A6100BF0C37BD4657
:1013F0005DF8047B704780B48BB000AFF860B960D3
:101400007A60FB681A68BB687B617B6993FAA3F317
:101410003B613B69BB61BB69002B01D1202303E029
:10142000BB69B3FA83F3DBB25B00032101FA03F378
:10143000DB431A40BB683B623B6A93FAA3F3FB6150
:10144000FB697B627B6A002B01D1202303E07B6A6E
:10145000B3FA83F3DBB25B00796801FA03F31A4352
:10146000FB681A6000BF2C37BD465DF8047B7047EF
:1014700080B48BB000AFF860B9607A60FB68DA685E
:10148000BB687B617B6993FAA3F33B613B69BB61FA
:10149000BB69002B01D1202303E0BB69B3FA83F3BE
:1014A000DBB25B00032101FA03F3DB431A40BB68A4
:1014B0003B623B6A93FAA3F3FB61FB697B627B6A45
:1014C000002B01D1202303E07B6AB3FA83F3DBB264
:1014D0005B00796801FA03F31A43FB68DA6000BF26
:1014E0002C37BD465DF8047B704780B483B000AFF5
:1014F000786039607B683A689A6100BF0C37BD46F6
:101500005DF8047B704780B483B000AF78603960C9
:101510003B681A047B689A6100BF0C37BD465DF8D2
:10152000047B704780B500AF0520FFF7F5FE00BFD4
:10153000FFF706FF0346052BFAD14FF48040FFF773
:101540000DFFFFF79FFD00BFFFF7ACFD0346012B2A
:10155000FAD100234FF4A87208214FF48000FFF75E
:1015600037FEFFF711FE00BFFFF71EFE0346012BFB
:10157000FAD10020FFF7CCFD4FF4A050FFF7DCFDBF
:101580004FF40040FFF7ECFD0220FFF79FFD00BF86
:10159000FFF7B0FD0346082BFAD1064800F036FEEF
:1015A0000F2000F0D3FA0346002B01D000F076FAAA
:1015B00000BF80BD007A030A80B58CB000AF07F190
:1015C000180300221A605A609A60DA601A615A6140
:1015D0003B4600221A605A609A60DA601A615A61CA
:1015E0000220FFF71BFE4FF410733B6002237B6069
:1015F0000023BB600123FB6001233B6104237B616B
:101600003B461946154800F046FC4FF40010FFF722
:101610001DFE1348FFF725FD1148FFF7FFFC10489A
:10162000FFF7ECFC0023BB610E4BFB6100233B6228
:1016300000237B624FF48063BB624FF48043FB6204
:1016400007F118031946064801F068F9002104481B
:10165000FFF7F4FC00BF3037BD4680BD00040240F8
:1016600000540040A086010080B590B000AF07F1A3
:10167000180328220021184605F0BEF83B46002238
:101680001A605A609A60DA601A615A614FF48050A9
:10169000FFF7F4FD0120FFF7C1FDE0233B600223CB
:1016A0007B600023BB600023FB6000233B610523BC
:1016B0007B613B461946134800F0EDFB0023BB61FC
:1016C0004FF48273FB6100233B6200237B620023A3
:1016D000BB624FF40073FB6200233B6300237B6318
:1016E0000023BB630A23FB6307F11803194606486E
:1016F00001F068F900210448FFF744FE00BF4037BD
:10170000BD4680BD000002400030014080B58EB073
:1017100000AF07F11C0300221A605A609A60DA6079
:101720001A615A619A613B1D00221A605A609A60E0
:10173000DA601A615A614FF40030FFF787FD01202B
:10174000FFF76CFD0C237B600223BB600323FB606F
:1017500000233B6100237B610723BB613B1D1946CE
:10176000274800F098FB4FF0006205212548FFF75D
:1017700001FC002205212348FFF700FB0022052180
:101780002048FFF7D3FB002205211E48FFF71AFB74
:10179000002205211B48FFF739FB4FF48062052129
:1017A0001848FFF757FB002205211648FFF776FB84
:1017B000002205211348FFF795FB05211148FFF78B
:1017C000FDFB4FF4E133FB6100233B6200237B62AE
:1017D0000023BB620C23FB6200233B6300237B637B
:1017E00007F11C031946084801F054FE0648FFF7AC
:1017F000ECFD0548FFF7D9FD00BF3837BD4680BD79
:1018000000000240006002400044004080B500AF8C
:101810004FF40010FFF702FDFFF726FA03460022FF
:1018200005211846FFF776FA034619461020FFF700
:1018300047FA1020FFF726FA00BF80BD80B588B0B8
:1018400000AF07F1180300221A605A603B460022DD
:101850001A605A609A60DA601A615A611020FFF7C4
:10186000DDFC0420FFF7DAFC8020FFF7D7FC012025
:10187000FFF7D4FC0220FFF7D1FC0820FFF7CEFCD5
:1018800008217848FFF73FFE4FF210017648FFF736
:101890003AFE01217548FFF728FE08233B6001232B
:1018A0007B600023BB600023FB6000233B613B4661
:1018B00019466C4800F0EFFA01233B6001237B607E
:1018C0000023BB600023FB6000233B613B461946BD
:1018D000664800F0E0FA08233B6002237B600023A7
:1018E000BB600023FB6000233B6105237B613B461B
:1018F00019465E4800F0CFFA10233B6002237B605C
:101900000023BB600023FB6000233B6106237B6157
:101910003B461946564800F0BEFA04233B600023BC
:101920007B6000233B613B461946524800F0B3FA06
:101930004FF480633B6002237B600023BB60002385
:10194000FB6000233B6105237B613B461946494808
:1019500000F0A1FA4FF210033B6001237B600023EB
:10196000BB600023FB6000233B613B4619463E48B9
:1019700000F091FA4FF4A4533B6002237B600023F4
:10198000BB600023FB6000233B6106237B613B4679
:101990001946364800F07FFA4FF400733B6000238D
:1019A0007B6000233B613B461946314800F073FAE7
:1019B0004FF4E0533B6002237B600023BB600023B5
:1019C000FB6000233B610A237B613B4619462848A4
:1019D00000F061FA20233B6000237B6000233B6121
:1019E0003B461946204800F056FA4FF4702100207B
:1019F000FFF75CFC4FF470010420FFF757FC012354
:101A0000BB6101233B7701237B770123BB7707F180
:101A10001803184600F0A2FC0223BB6101233B77A8
:101A200001237B770123BB7707F11803184600F0E9
:101A300095FC002201210E48FFF71AFD0022022129
:101A40000848FFF715FD002201210948FFF7D3FCE4
:101A5000002202210348FFF7CEFC00BF2037BD461D
:101A600080BD00BF00100240000C02400008024090
:101A7000000002400004024080B582B000AF7860F0
:101A80007B681B68044A934201D100F03DFE00BF11
:101A90000837BD4680BD00BF000C004080B400AFD9
:101AA00072B600BFFEE780B400AFFEE780B400AFBF
:101AB000FEE780B400AFFEE780B400AFFEE780B47D
:101AC00000AFFEE780B400AF00BFBD465DF8047B09
:101AD000704780B400AF00BFBD465DF8047B70471F
:101AE00080B500AF024801F089F800BF80BD00BF9B
:101AF000A800002080B582B000AF00237B60124BAD
:101B00005B6C114A43F4804353640F4B5B6C03F4EA
:101B100080437B607B6800233B600B4B1B6C0A4A55
:101B200043F080531364084B1B6C03F080533B60FD
:101B30003B6800220F216FF0010000F099FD00BF0B
:101B40000837BD4680BD00BF0038024080B58CB06C
:101B500000AF78600023FB620023BB62002279683B
:101B6000322000F085FD322000F09EFD0023FB6056
:101B70001F4B1B6C1E4A43F0080313641C4B1B6C69
:101B800003F00803FB60FB6807F1100207F1140380
:101B90001146184600F082FC00F06CFC03465B0026
:101BA000FB62FB6A134AA2FB03239B0C013BBB6253
:101BB000114B124A1A60104B40F2E732DA600E4ABB
:101BC000BB6A53600C4B00221A610B4B00229A60D7
:101BD000094800F049FF0346002B04D1064800F0F5
:101BE0009DFF034600E0012318463037BD4680BD07
:101BF0000038024083DE1B43A8000020000C004098
:101C000080B48BB000AFF860B9607A60FB681A6886
:101C1000BB687B617B6993FAA3F33B613B69BB6162
:101C2000BB69002B01D1202303E0BB69B3FA83F326
:101C3000DBB25B00032101FA03F3DB431A40BB680C
:101C40003B623B6A93FAA3F3FB61FB697B627B6AAD
:101C5000002B01D1202303E07B6AB3FA83F3DBB2CC
:101C60005B00796801FA03F31A43FB681A6000BF4E
:101C70002C37BD465DF8047B704780B485B000AF5B
:101C8000F860B9607A60FB685A68BB68DB431A4049
:101C9000BB68796801FB03F31A43FB685A6000BF15
:101CA0001437BD465DF8047B704780B48BB000AF3D
:101CB000F860B9607A60FB689A68BB687B617B6991
:101CC00093FAA3F33B613B69BB61BB69002B01D174
:101CD000202303E0BB69B3FA83F3DBB25B0003218B
:101CE00001FA03F3DB431A40BB683B623B6A93FA99
:101CF000A3F3FB61FB697B627B6A002B01D120238C
:101D000003E07B6AB3FA83F3DBB25B00796801FA24
:101D100003F31A43FB689A6000BF2C37BD465DF899
:101D2000047B704780B48BB000AFF860B9607A6014
:101D3000FB68DA68BB687B617B6993FAA3F33B615C
:101D40003B69BB61BB69002B01D1202303E0BB6968
:101D5000B3FA83F3DBB25B00032101FA03F3DB4345
:101D60001A40BB683B623B6A93FAA3F3FB61FB69D1
:101D70007B627B6A002B01D1202303E07B6AB3FAEC
:101D800083F3DBB25B00796801FA03F31A43FB6863
:101D9000DA6000BF2C37BD465DF8047B704780B425
:101DA0008BB000AFF860B9607A60FB681A6ABB68F4
:101DB0007B617B6993FAA3F33B613B69BB61BB69C0
:101DC000002B01D1202303E0BB69B3FA83F3DBB21C
:101DD0009B000F2101FA03F3DB431A40BB683B620F
:101DE0003B6A93FAA3F3FB61FB697B627B6A002B7E
:101DF00001D1202303E07B6AB3FA83F3DBB29B00BB
:101E0000796801FA03F31A43FB681A6200BF2C37A2
:101E1000BD465DF8047B704780B48BB000AFF860BE
:101E2000B9607A60FB685A6ABB681B0A7B617B6990
:101E300093FAA3F33B613B69BB61BB69002B01D102
:101E4000202303E0BB69B3FA83F3DBB29B000F21CD
:101E500001FA03F3DB431A40BB681B0A3B623B6A8F
:101E600093FAA3F3FB61FB697B627B6A002B01D1D0
:101E7000202303E07B6AB3FA83F3DBB29B0079682B
:101E800001FA03F31A43FB685A6200BF2C37BD46C0
:101E90005DF8047B704780B58AB000AF7860396028
:101EA00000237B6200233B623B681B68BB61BB690C
:101EB00093FAA3F37B617B69FB61FB69002B01D182
:101EC000202303E0FB69B3FA83F3DBB27B6257E0C4
:101ED0003B681A6801217B6A01FA03F313403B62F5
:101EE0003B6A002B49D03B685B68012B03D03B6801
:101EF0005B68022B0DD13B689B681A46396A78688B
:101F0000FFF7D3FE3B68DB681A46396A7868FFF74B
:101F1000B4FE3B681B691A46396A7868FFF702FF0E
:101F20003B685B68022B21D13B6AFB60FB6893FA3C
:101F3000A3F3BB60BB683B613B69002B01D120234D
:101F400003E03B69B3FA83F3DBB2072B07D83B68A6
:101F50005B691A46396A7868FFF721FF06E03B683B
:101F60005B691A46396A7868FFF756FF3B685B6819
:101F70001A46396A7868FFF743FE7B6A01337B6251
:101F80003B681A687B6A22FA03F3002BA0D1002376
:101F900018462837BD4680BD80B400AF044B9B680F
:101FA00003F00C031846BD465DF8047B704700BF84
:101FB0000038024080B400AF044B9B6803F0F0038C
:101FC0001846BD465DF8047B704700BF00380240EC
:101FD00080B400AF044B9B6803F4E0531846BD4641
:101FE0005DF8047B704700BF0038024080B400AF4A
:101FF000044B9B6803F460431846BD465DF8047BC0
:10200000704700BF0038024080B400AF044B5B68EB
:1020100003F480031846BD465DF8047B704700BF9B
:102020000038024080B400AF044B5B689B09C3F3E7
:1020300008031846BD465DF8047B7047003802402F
:1020400080B400AF044B5B6803F440331846BD46D0
:102050005DF8047B704700BF0038024080B400AFD9
:10206000044B5B6803F03F031846BD465DF8047BF4
:10207000704700BF0038024080B582B000AF786082
:1020800000F020F802467B681A607B681B681846DF
:1020900000F040F802467B685A607B685B6818462F
:1020A00000F04EF802467B689A607B685B681846D1
:1020B00000F05AF802467B68DA6000BF0837BD4678
:1020C00080BD000080B582B000AF00237B60FFF7C9
:1020D00063FF0346082B0CD0082B0FD8002B02D02F
:1020E000042B03D00AE0094B7B600AE0084B7B60BD
:1020F00007E0082000F04CF8786002E0034B7B60BA
:1021000000BF7B6818460837BD4680BD0024F40038
:1021100000127A0080B582B000AF7860FFF74AFF06
:1021200003461B0903F00F03044AD35C1A467B687D
:10213000D34018460837BD4680BD00BFBC680008C4
:1021400080B582B000AF7860FFF742FF03469B0A7C
:10215000044AD35C1A467B68D34018460837BD460C
:1021600080BD00BFCC68000880B582B000AF786049
:10217000FFF73CFF03465B0B044AD35C1A467B68BF
:10218000D34018460837BD4680BD00BFCC68000864
:1021900090B587B000AF786000237B610023FB60BF
:1021A00000233B61FFF730FFF860FB68002B04D091
:1021B000FB68B3F5800F03D005E0124B7B6105E0AF
:1021C000114B7B6102E00F4B7B6100BF7B68082BEA
:1021D00013D1FFF743FF02467B69B3FBF2F4FFF72D
:1021E00021FF034603FB04F4FFF72AFF03461B0C01
:1021F00001335B00B4FBF3F33B613B6918461C37CA
:10220000BD4690BD0024F40000127A0080B483B073
:1022100000AF7860044A7B68136000BF0C37BD468E
:102220005DF8047B704700BF3000002080B483B0AD
:1022300000AF7860054B1A6804497B6813430B6054
:1022400000BF0C37BD465DF8047B7047003C014081
:1022500080B483B000AF7860064B1A687B68DB43BC
:10226000044913400B6000BF0C37BD465DF8047B8A
:10227000704700BF003C014080B483B000AF78607D
:10228000054B5A6804497B6813434B6000BF0C3709
:10229000BD465DF8047B7047003C014080B483B0CC
:1022A00000AF7860064B5A687B68DB4304491340F3
:1022B0004B6000BF0C37BD465DF8047B704700BF24
:1022C000003C014080B483B000AF7860054B9A6851
:1022D00004497B6813438B6000BF0C37BD465DF833
:1022E000047B7047003C014080B483B000AF78604D
:1022F000064B9A687B68DB43044913408B6000BF40
:102300000C37BD465DF8047B704700BF003C0140C0
:1023100080B483B000AF7860054BDA6804497B680D
:102320001343CB6000BF0C37BD465DF8047B70479C
:10233000003C014080B483B000AF7860064BDA689F
:102340007B68DB4304491340CB6000BF0C37BD46BC
:102350005DF8047B704700BF003C014080B584B04D
:1023600000AF78600023FB737B681B79002B65D07E
:102370007B681B68002B6BD07B685B79022B1CD0C1
:10238000022B25DC002B02D0012B0BD020E07B6838
:102390001B681846FFF782FF7B681B681846FFF72B
:1023A00045FF18E07B681B681846FFF751FF7B6804
:1023B0001B681846FFF760FF0DE07B681B68184636
:1023C000FFF734FF7B681B681846FFF755FF02E0F4
:1023D0000123FB7300BF7B689B79002B38D07B689F
:1023E0009B79032B1CD0032B25DC012B02D0022B65
:1023F0000BD020E07B681B681846FFF79BFF7B68CB
:102400001B681846FFF75EFF22E07B681B681846D2
:10241000FFF76AFF7B681B681846FFF779FF17E034
:102420007B681B681846FFF74DFF7B681B681846E2
:10243000FFF76EFF0CE00123FB7309E07B681B686C
:102440001846FFF705FF7B681B681846FFF726FF55
:10245000FB7B18461037BD4680BD000080B400AF3E
:10246000034B1B681846BD465DF8047B704700BFF0
:102470003000002080B500AFFFF7F0FF0246054BAB
:102480009B689B0A03F007030349CB5C22FA03F322
:10249000184680BD00380240CC68000880B483B084
:1024A00000AF786039607B680F221A60124B9B681E
:1024B00003F003027B685A600F4B9B6803F0F00245
:1024C0007B689A600C4B9B6803F4E0527B68DA608F
:1024D000094B9B68DB0803F4E0527B681A61074BE9
:1024E0001B6803F007023B681A6000BF0C37BD464B
:1024F0005DF8047B704700BF00380240003C02409A
:1025000080B485B000AF78607B6803F00703FB60A0
:102510000C4BDB68BB60BA684FF6FF031340BB602F
:10252000FB681A02BB68134343F0BF6343F40033F4
:10253000BB60044ABB68D36000BF1437BD465DF87A
:10254000047B704700ED00E080B400AF044BDB6813
:102550001B0A03F007031846BD465DF8047B70476D
:1025600000ED00E080B483B000AF0346FB7197F943
:102570000730002B0BDBFB7903F01F02074997F9AB
:1025800007305B09012000FA02F241F8232000BF66
:102590000C37BD465DF8047B704700BF00E100E0EA
:1025A00080B483B000AF03463960FB7197F9073000
:1025B000002B0ADB3B68DAB20C4997F907301201AD
:1025C000D2B20B4483F800230AE03B68DAB2084930
:1025D000FB7903F00F03043B1201D2B20B441A76CD
:1025E00000BF0C37BD465DF8047B704700E100E09A
:1025F00000ED00E080B489B000AFF860B9607A60A7
:10260000FB6803F00703FB61FB69C3F10703042BBD
:1026100028BF0423BB61FB690433062B02D9FB6985
:10262000033B00E000237B614FF0FF32BB6902FAFD
:1026300003F3DA43BB681A407B699A404FF0FF31DD
:102640007B6901FA03F3D9437B680B4013431846B7
:102650002437BD465DF8047B704780B582B000AF7B
:1026600078607868FFF74CFF00BF0837BD4680BD33
:1026700080B586B000AF0346B9607A60FB73002373
:102680007B61FFF761FF78617A68B9687869FFF765
:10269000B1FF024697F90F3011461846FFF780FF49
:1026A00000BF1837BD4680BD80B582B000AF03467D
:1026B000FB7197F907301846FFF754FF00BF083742
:1026C000BD4680BD80B500AF0E4B1B680D4A43F47C
:1026D000007313600B4B1B680A4A43F4806313605A
:1026E000084B1B68074A43F4807313600320FFF70D
:1026F000B4FF0F20FFF72AFAFFF7FCF90023184672
:1027000080BD00BF003C024080B400AF064B1B7888
:102710001A46064B1B681344044A136000BFBD46AB
:102720005DF8047B704700BF28000020F000002007
:1027300080B483B000AF78607B681B6843F001020F
:102740007B681A6000BF0C37BD465DF8047B70479C
:1027500080B483B000AF78607B681B6823F001020F
:102760007B681A6000BF0C37BD465DF8047B70477C
:1027700080B485B000AFF860B9607A60FB689B6890
:1027800023F4034323F0FF03B9687A680A431A432A
:10279000FB689A6000BF1437BD465DF8047B704744
:1027A00080B487B000AFF860B9607A603B60002306
:1027B0003B6100237B61BB68424AA2FB03239B0C65
:1027C0003B61FB685B6823F03F023B691A43FB688F
:1027D0005A60FB681B6A23F03F027B683A498B42D0
:1027E00002D83B69013309E03B694FF4967101FB64
:1027F00003F33649A1FB03139B0901331A43FB681A
:102800001A627B68304A934239D93B68002B17D152
:102810007A6813465B001344BA68B2FBF3F3C3F360
:102820000B03002B09D07A6813465B001344BA6887
:10283000B2FBF3F343F400431DE048F201031AE056
:102840007A6813469B0013449A001344BA68B2FB9B
:10285000F3F3C3F30B03002B0BD07A6813469B00F2
:1028600013449A001344BA68B2FBF3F343F40043F1
:1028700001E048F201033A6813437B6111E07B6891
:102880005B00BA68B2FBF3F240F6FC731340002B16
:1028900005D07B685B00BA68B2FBF3F300E0042369
:1028A0007B61FB68DB6923F44F4323F0FF037A6904
:1028B0001A43FB68DA6100BF1C37BD465DF8047B34
:1028C000704700BF83DE1B43A0860100D34D62101A
:1028D00080B483B000AF786039607B681B6823F0F8
:1028E0001A023B681A437B681A6000BF0C37BD466A
:1028F0005DF8047B704780B483B000AF78603960C6
:102900007B681B6823F480623B681A437B681A600B
:1029100000BF0C37BD465DF8047B704780B586B0BC
:1029200000AF786039607868FFF712FF07F108039D
:102930001846FFF7A1FB39693B685A683B689B68FA
:102940007868FFF72DFF3B68D9683B685B691A46DA
:102950007868FFF70DFF3B681B6819467868FFF73A
:10296000B7FF7868FFF7E4FE3B681B691946786893
:10297000FFF7C1FF002318461837BD4680BD80B45D
:1029800083B000AF78607B681B6803F04003402B86
:1029900001D1012300E0002318460C37BD465DF845
:1029A000047B704780B483B000AF786039603B68C7
:1029B0009BB21A467B681A6100BF0C37BD465DF8B2
:1029C000047B704780B584B000AF78603960012324
:1029D000FB737868FFF7D3FF0346002B39D17B6880
:1029E0001B6823F47F4323F0BF033A6811683A68F9
:1029F000526811433A68926811433A68D2681143A9
:102A00003A68126911433A68526911433A68926907
:102A100011433A68D26911433A68126A0A431A4369
:102A20007B681A607B685B6823F004023B685B6923
:102A30001B0C1A437B685A603B681B6AB3F5005F46
:102A400005D13B685B6A19467868FFF7ABFF002346
:102A5000FB737B68DB6923F400627B68DA61FB7BD4
:102A600018461037BD4680BD80B582B000AF786093
:102A70007B68002B01D1012341E07B6893F83D3056
:102A8000DBB2002B06D17B68002283F83C207868FB
:102A900000F039F87B68022283F83D207B681A68D1
:102AA0007B6804331946104600F0D8F97B68012290
:102AB00083F846207B68012283F83E207B68012250
:102AC00083F83F207B68012283F840207B68012245
:102AD00083F841207B68012283F842207B68012231
:102AE00083F843207B68012283F844207B6801221D
:102AF00083F845207B68012283F83D200023184697
:102B00000837BD4680BD80B483B000AF786000BF99
:102B10000C37BD465DF8047B7047000080B485B07B
:102B200000AF78607B6893F83D30DBB2012B01D0B9
:102B300001234EE07B68022283F83D207B681B68FE
:102B4000DA687B681B6842F00102DA607B681B6808
:102B5000234A934222D07B681B68B3F1804F1DD07B
:102B60007B681B681F4A934218D07B681B681E4A0B
:102B7000934213D07B681B681C4A93420ED07B683B
:102B80001B681B4A934209D07B681B68194A934211
:102B900004D07B681B68184A934211D17B681B687C
:102BA0009B6803F00703FB60FB68062B10D07B6873
:102BB0001B681A687B681B6842F001021A6007E014
:102BC0007B681B681A687B681B6842F001021A6008
:102BD000002318461437BD465DF8047B704700BFDC
:102BE000000001400004004000080040000C0040CC
:102BF00000040140004001400018004080B582B050
:102C000000AF78607B681B681B6903F00203022B2E
:102C100022D17B681B68DB6803F00203022B1BD107
:102C20007B681B686FF002021A617B6801221A77C9
:102C30007B681B689B6903F00303002B03D0786853
:102C400000F0EEF805E0786800F0E0F8786800F051
:102C5000F1F87B6800221A777B681B681B6903F018
:102C60000403042B22D17B681B68DB6803F0040398
:102C7000042B1BD17B681B686FF004021A617B6810
:102C800002221A777B681B689B6903F44073002B50
:102C900003D0786800F0C4F805E0786800F0B6F872
:102CA000786800F0C7F87B6800221A777B681B6899
:102CB0001B6903F00803082B22D17B681B68DB68C3
:102CC00003F00803082B1BD17B681B686FF0080218
:102CD0001A617B6804221A777B681B68DB6903F042
:102CE0000303002B03D0786800F09AF805E07868B9
:102CF00000F08CF8786800F09DF87B6800221A7765
:102D00007B681B681B6903F01003102B22D17B68C2
:102D10001B68DB6803F01003102B1BD17B681B685A
:102D20006FF010021A617B6808221A777B681B68B3
:102D3000DB6903F44073002B03D0786800F070F86F
:102D400005E0786800F062F8786800F073F87B6856
:102D500000221A777B681B681B6903F00103012BB3
:102D60000ED17B681B68DB6803F00103012B07D1E0
:102D70007B681B686FF001021A617868FEF77CFEC1
:102D80007B681B681B6903F08003802B0ED17B6876
:102D90001B68DB6803F08003802B07D17B681B680E
:102DA0006FF080021A61786800F002F97B681B6896
:102DB0001B6903F04003402B0ED17B681B68DB6866
:102DC00003F04003402B07D17B681B686FF0400283
:102DD0001A61786800F038F87B681B681B6903F09B
:102DE0002003202B0ED17B681B68DB6803F02003D7
:102DF000202B07D17B681B686FF020021A6178686E
:102E000000F0CCF800BF0837BD4680BD80B483B069
:102E100000AF786000BF0C37BD465DF8047B70479B
:102E200080B483B000AF786000BF0C37BD465DF85A
:102E3000047B704780B483B000AF786000BF0C376C
:102E4000BD465DF8047B704780B483B000AF786006
:102E500000BF0C37BD465DF8047B704780B485B079
:102E600000AF786039607B681B68FB607B68404A14
:102E7000934213D07B68B3F1804F0FD07B683D4AFB
:102E800093420BD07B683C4A934207D07B683B4A15
:102E9000934203D07B683A4A934208D1FB6823F0FF
:102EA0007003FB603B685B68FA681343FB607B68F8
:102EB0002F4A93422BD07B68B3F1804F27D07B6899
:102EC0002C4A934223D07B682B4A93421FD07B68C5
:102ED0002A4A93421BD07B68294A934217D07B68C9
:102EE000284A934213D07B68274A93420FD07B68CD
:102EF000264A93420BD07B68254A934207D07B68D1
:102F0000244A934203D07B68234A934208D1FB684A
:102F100023F44073FB603B68DB68FA681343FB6093
:102F2000FB6823F080023B685B691343FB607B68AE
:102F3000FA681A603B689A687B68DA623B681A68CC
:102F40007B689A627B680A4A934203D07B680C4A8A
:102F5000934203D13B681A697B681A637B6801223C
:102F60005A6100BF1437BD465DF8047B704700BF4F
:102F7000000001400004004000080040000C004038
:102F8000000401400040014000440140004801406D
:102F900000180040001C00400020004080B483B0B6
:102FA00000AF786000BF0C37BD465DF8047B70470A
:102FB00080B483B000AF786000BF0C37BD465DF8C9
:102FC000047B704780B483B000AF78607B68DB68B7
:102FD00003F40053B3F5005F0CBF01230023DBB201
:102FE00018460C37BD465DF8047B704780B483B04B
:102FF00000AF786039607B681B6923F440523B68FE
:103000001A437B681A6100BF0C37BD465DF8047B2C
:10301000704780B483B000AF786039607B685B69CB
:1030200023F440723B681A437B685A6100BF0C3737
:10303000BD465DF8047B70472DE9B04FC0B000AFCE
:10304000C7F8FC00C7F8F810C7F8F420C7F8F0304C
:10305000D7F8F430B3F5004F40F00C81D7F8F830D2
:103060000022C7F8E830C7F8EC20D7E93A452246F5
:103070002B46911839665B417B66D7E918232146B8
:1030800012EB0108294643EB01094FF000024FF013
:1030900000034FEAC90343EA58734FEAC802904657
:1030A0009946234618EB0303C7F8E0302B4649EB5B
:1030B0000303C7F8E430D7F8F03000229A4693466D
:1030C0001AEB0A03BB654BEB0B03FB65D7E9162331
:1030D000D7E93801FDF7A0FA02460B46644BA3FB83
:1030E00002235B099BB21B019CB2D7F8F830002287
:1030F000C7F8D830C7F8DC20D7E9368942464B46B6
:10310000911839655B417B65D7E914234146511815
:10311000B96449464B41FB644FF000024FF0000395
:10312000D7E912AB5946CB00514643EA5173514699
:10313000CA0010461946034642469B18C7F8D030CD
:103140004B460A4642EB0303C7F8D430D7F8F030B9
:103150000022C7F8C830C7F8CC20D7E932120B4696
:10316000DB183B64134642EB03037B64D7E910236F
:10317000D7E93401FDF750FA02460B4611463C4BA5
:10318000A3FB01235B09642202FB03F3CB1ADB00E0
:1031900003F13202364BA3FB02235B099BB25B00B7
:1031A0009BB203F4F8739BB223449CB2D7F8F83077
:1031B0000022C7F8C030C7F8C420D7E9308942469A
:1031C0004B469118B9635B41FB63D7E90E23414637
:1031D0005118396349464B417B634FF000024FF071
:1031E0000003D7E90CAB5946CB00514643EA517373
:1031F0005146CA0010461946034642469B18C7F876
:10320000B8304B460A4642EB0303C7F8BC30D7F848
:10321000F0300022C7F8B030C7F8B420D7E92C123C
:103220000B46DB18BB62134642EB0303FB62D7E994
:103230000A23D7E92E01FDF7EFF902460B460C4BA6
:10324000A3FB02135B09642101FB03F3D31ADB0028
:103250003233074AA2FB03235B099BB203F0070347
:103260009BB223449BB21A46D7F8FC309A6008E11F
:103270001F85EB51D7F8F8300022C7F8A830C7F8FF
:10328000AC20D7E92A8942464B46911839625B4106
:103290007B62D7E9082341465418494643EB0105B0
:1032A0004FF000024FF00003EB0043EA5473E200DA
:1032B00014461D464346E318C7F8A0304B4645EB7D
:1032C0000303C7F8A430D7F8F0300022C7F89830CD
:1032D000C7F89C204FF000024FF00003D7E92645C5
:1032E00029468B00214643EA917321468A00D7E99B
:1032F0002801FDF791F902460B46654BA3FB02231B
:103300005B099BB21B019CB2D7F8F8300022C7F8CA
:103310009030C7F89420D7E9248942464B4691184B
:10332000B9615B41FB61D7E9062341465118396118
:1033300049464B417B614FF000024FF00003D7E953
:1033400004AB5946CB00514643EA51735146CA007B
:1033500010461946034642469B18C7F888304B462C
:103360000A4642EB0303C7F88C30D7F8F03000224E
:10337000C7F88030C7F884204FF000024FF00003F8
:10338000D7E9208949468B00414643EA917341467B
:103390008A00D7E92201FDF73FF902460B461146A4
:1033A0003B4BA3FB01235B09642202FB03F3CB1A13
:1033B0001B013233364AA2FB03235B099BB203F0A5
:1033C000F0039BB223449CB2D7F8F8300022BB67CD
:1033D000FA67D7E91E8942464B469118B9605B41AE
:1033E000FB60D7E9022341465118396049464B41F9
:1033F0007B604FF000024FF00003D7E900AB594665
:10340000CB00514643EA51735146CA001046194653
:10341000034642469B183B674B460A4642EB030372
:103420007B67D7F8F0300022BB66FA664FF00002E7
:103430004FF00003D7E91A8949468B00414643EA19
:10344000917341468A00D7E91C01FDF7E5F8024671
:103450000B460F4BA3FB02135B09642101FB03F333
:10346000D31A1B0132330A4AA2FB03235B099BB226
:1034700003F00F039BB223449BB21A46D7F8FC30EB
:103480009A6000BF07F58077BD46BDE8B08F00BFEA
:103490001F85EB5180B588B000AF7860396001239B
:1034A000FB770023BB617868FFF78CFD0346002B98
:1034B0005ED17B68DB6823F4164323F00C033A6883
:1034C00051683A68D26811433A68126911433A6800
:1034D00092690A431A437B68DA603B689B68194625
:1034E0007868FFF783FD3B685B6919467868FFF7EA
:1034F00090FD07F108031846FEF7BEFD7B681F4AE2
:10350000934202D17B69BB6121E07B681C4A9342F4
:1035100002D13B69BB611AE07B681A4A934202D12F
:103520003B69BB6113E07B68174A934202D17B6918
:10353000BB610CE07B68154A934202D13B69BB61D9
:1035400005E07B68124A934201D13B69BB61BB69CC
:10355000002B0DD03B681B68002B09D00023FB77A4
:103560003B689A693B681B68B9697868FFF764FD36
:10357000FB7F18462037BD4680BD00BF00100140CC
:10358000004400400048004000140140004C00404E
:103590000050004080B483B000AF78607B6803F1D6
:1035A00008027B685A607B684FF0FF329A607B6844
:1035B00003F108027B68DA607B6803F108027B682C
:1035C0001A617B6800221A6000BF0C37BD465DF8A7
:1035D000047B704780B483B000AF78607B680022C2
:1035E0001A6100BF0C37BD465DF8047B704780B49C
:1035F00085B000AF786039607B685B68FB603B68D2
:10360000FA685A60FB689A683B689A60FB689B6836
:103610003A685A60FB683A689A603B687A681A614F
:103620007B681B685A1C7B681A6000BF1437BD4654
:103630005DF8047B704780B485B000AF7860396076
:103640003B681B68BB60BB68B3F1FF3F03D17B687D
:103650001B69FB600CE07B680833FB6002E0FB68E1
:103660005B68FB60FB685B681B68BA689A42F6D2CD
:10367000FB685A683B685A603B685B683A689A60C6
:103680003B68FA689A60FB683A685A603B687A68F7
:103690001A617B681B685A1C7B681A6000BF14376C
:1036A000BD465DF8047B704780B485B000AF78609C
:1036B0007B681B69FB607B685B687A6892689A60CC
:1036C0007B689B687A6852685A60FB685B687A68B6
:1036D0009A4203D17B689A68FB685A607B68002233
:1036E0001A61FB681B685A1EFB681A60FB681B683E
:1036F00018461437BD465DF8047B704780B584B02A
:1037000000AF786039607B68FB60FB68002B0AD1F2
:103710004FF0500383F31188BFF36F8FBFF34F8FC8
:10372000BB6000BFFEE702F0A5FDFB681A68FB68FE
:10373000DB6BF968096C01FB03F31A44FB689A60C0
:10374000FB6800229A63FB681A68FB685A60FB6892
:103750001A68FB68DB6B013BF968096C01FB03F33A
:103760001A44FB68DA60FB68FF2283F84420FB6898
:10377000FF2283F845203B68002B14D1FB681B69AE
:10378000002B1AD0FB681033184601F0D1FA03461B
:10379000002B12D00C4B4FF080521A60BFF34F8FAA
:1037A000BFF36F8F09E0FB6810331846FFF7F2FE96
:1037B000FB6824331846FFF7EDFE02F08BFD012372
:1037C00018461037BD4680BD04ED00E080B58EB0D0
:1037D00002AFF860B9607A603B60FB68002B0AD1E9
:1037E0004FF0500383F31188BFF36F8FBFF34F8FF8
:1037F000BB6200BFFEE73B68002B0AD14FF05003CD
:1038000083F31188BFF36F8FBFF34F8F7B6200BFCD
:10381000FEE77B68002B02D0BB68002B01D00123A0
:1038200000E00023002B0AD14FF0500383F31188EE
:10383000BFF36F8FBFF34F8F3B6200BFFEE77B6824
:10384000002B02D1BB68002B01D1012300E0002333
:10385000002B0AD14FF0500383F31188BFF36F8F11
:10386000BFF34F8FFB6100BFFEE750237B617B6995
:10387000502B0AD04FF0500383F31188BFF36F8FA2
:10388000BFF34F8FBB6100BFFEE77B693B68FB6204
:10389000FB6A002B0DD0FB6A012283F8462097F8C3
:1038A0003820FB6A009313467A68B968F86800F01C
:1038B0003FF8FB6A18463037BD4680BD80B58AB0F8
:1038C00002AFF860B9601346FB71FB68002B0AD1A8
:1038D0004FF0500383F31188BFF36F8FBFF34F8F07
:1038E0003B6100BFFEE7FB68BA6802FB03F3FB61C4
:1038F000FB695033184602F0A5F9B861BB69002B8B
:1039000011D0BB697B617B6950337B61BB6900224D
:1039100083F84620FA79BB69009313467A69B9683F
:10392000F86800F005F8BB6918462037BD4680BD31
:1039300080B584B000AFF860B9607A60FB70BB6896
:10394000002B03D1BB69BA691A6002E0BB697A68CF
:103950001A60BB69FA68DA63BB69BA681A64012144
:10396000B869FFF7CBFEBB69FA7883F84C2000BF3B
:103970001037BD4680BD80B586B000AF7860396035
:103980007B68002B0AD14FF0500383F31188BFF3FB
:103990006F8FBFF34F8F3B6100BFFEE73A687B68D4
:1039A0009A420AD94FF0500383F31188BFF36F8F07
:1039B000BFF34F8FFB6000BFFEE702220021786853
:1039C000FFF77CFF78617B69002B02D07B693A6846
:1039D0009A637B6918461837BD4680BD80B58EB0A6
:1039E00000AFF860B9607A603B6000237B63FB68DE
:1039F0003B633B6B002B0AD14FF0500383F31188DC
:103A0000BFF36F8FBFF34F8FBB6200BFFEE7BB6892
:103A1000002B03D13B6B1B6C002B01D1012300E079
:103A20000023002B0AD14FF0500383F31188BFF31A
:103A30006F8FBFF34F8F7B6200BFFEE73B68022BA7
:103A400003D13B6BDB6B012B01D1012300E0002391
:103A5000002B0AD14FF0500383F31188BFF36F8F0F
:103A6000BFF34F8F3B6200BFFEE701F01FFB034631
:103A7000002B02D17B68002B01D1012300E0002341
:103A8000002B0AD14FF0500383F31188BFF36F8FDF
:103A9000BFF34F8FFB6100BFFEE702F0EBFB3B6B18
:103AA0009A6B3B6BDB6B9A4202D33B68022B29D1AA
:103AB0003A68B968386B00F02FFBF8623B6B5B6AC1
:103AC000002B10D03B6B2433184601F031F903462C
:103AD000002B13D03F4B4FF080521A60BFF34F8F33
:103AE000BFF36F8F0AE0FB6A002B07D0394B4FF012
:103AF00080521A60BFF34F8FBFF36F8F02F0EAFB63
:103B0000012363E07B68002B03D102F0E3FB002379
:103B10005CE07B6B002B06D107F11403184601F023
:103B20006BF901237B6302F0D5FB00F0DDFE02F0B0
:103B3000A1FB3B6B93F844305BB2B3F1FF3F03D181
:103B40003B6B002283F844203B6B93F845305BB21B
:103B5000B3F1FF3F03D13B6B002283F8452002F015
:103B6000B9FB3A1D07F114031146184601F05AF942
:103B70000346002B24D1386B00F0C6FB0346002B14
:103B800018D03B6B10337A681146184601F080F864
:103B9000386B00F051FB00F0B5FE0346002B7FF4BC
:103BA0007CAF0C4B4FF080521A60BFF34F8FBFF3C6
:103BB0006F8F72E7386B00F03FFB00F0A3FE6CE7FD
:103BC000386B00F039FB00F09DFE002318463837B3
:103BD000BD4680BD04ED00E080B590B000AFF86058
:103BE000B9607A603B60FB68BB63BB6B002B0AD19A
:103BF0004FF0500383F31188BFF36F8FBFF34F8FE4
:103C0000BB6200BFFEE7BB68002B03D1BB6B1B6C24
:103C1000002B01D1012300E00023002B0AD14FF03B
:103C2000500383F31188BFF36F8FBFF34F8F7B6215
:103C300000BFFEE73B68022B03D1BB6BDB6B012BA4
:103C400001D1012300E00023002B0AD14FF05003E3
:103C500083F31188BFF36F8FBFF34F8F3B6200BFB9
:103C6000FEE702F0E9FBEFF311824FF0500383F31C
:103C70001188BFF36F8FBFF34F8FFA61BB61FB6990
:103C80007B63BB6B9A6BBB6BDB6B9A4202D33B686B
:103C9000022B2FD1BB6B93F8453087F83330BB6BC9
:103CA0009B6BFB623A68B968B86B00F035FA97F91C
:103CB0003330B3F1FF3F12D1BB6B5B6A002B16D0E0
:103CC000BB6B2433184601F033F80346002B0ED0AB
:103CD0007B68002B0BD07B6801221A6007E097F805
:103CE00033300133DBB25AB2BB6B83F8452001237A
:103CF000FB6301E00023FB637B6B7B617B6983F3E8
:103D0000118800BFFB6B18464037BD4680BD0000E0
:103D100080B58CB000AFF860B9607A600023FB62B8
:103D2000FB68BB62BB6A002B0AD14FF0500383F3E0
:103D30001188BFF36F8FBFF34F8F3B6200BFFEE769
:103D4000BB68002B03D1BB6A1B6C002B01D1012384
:103D500000E00023002B0AD14FF0500383F31188B9
:103D6000BFF36F8FBFF34F8FFB6100BFFEE701F022
:103D70009DF90346002B02D17B68002B01D1012362
:103D800000E00023002B0AD14FF0500383F3118889
:103D9000BFF36F8FBFF34F8FBB6100BFFEE702F031
:103DA00069FABB6A9B6B7B627B6A002B1FD0B96888
:103DB000B86A00F01BFA7B6A5A1EBB6A9A63BB6A38
:103DC0001B69002B0FD0BB6A1033184600F0B0FF00
:103DD0000346002B07D03D4B4FF080521A60BFF3D3
:103DE0004F8FBFF36F8F02F075FA012369E07B6894
:103DF000002B03D102F06EFA002362E0FB6A002B75
:103E000006D107F11003184600F0F6FF0123FB620C
:103E100002F060FA00F068FD02F02CFABB6A93F839
:103E200044305BB2B3F1FF3F03D1BB6A002283F899
:103E30004420BB6A93F845305BB2B3F1FF3F03D136
:103E4000BB6A002283F8452002F044FA3A1D07F1CC
:103E500010031146184600F0E5FF0346002B23D15E
:103E6000B86A00F03BFA0346002B17D0BB6A243334
:103E70007A681146184600F00BFFB86A00F0DCF9CA
:103E800000F040FD0346002B89D1104B4FF08052CB
:103E90001A60BFF34F8FBFF36F8F80E7B86A00F0EF
:103EA000CBF900F02FFD7AE7B86A00F0C5F900F011
:103EB00029FDB86A00F012FA0346002B3FF46FAFF9
:103EC000002318463037BD4680BD00BF04ED00E03A
:103ED00080B58EB000AF7860396000237B637B686B
:103EE000FB6200233B63FB6A002B0AD14FF05003B7
:103EF00083F31188BFF36F8FBFF34F8F3B6200BF17
:103F0000FEE7FB6A1B6C002B0AD04FF0500383F3D3
:103F10001188BFF36F8FBFF34F8FFB6100BFFEE7C8
:103F200001F0C4F80346002B02D13B68002B01D1FD
:103F3000012300E00023002B0AD14FF0500383F34C
:103F40001188BFF36F8FBFF34F8FBB6100BFFEE7D8
:103F500002F090F9FB6A9B6BBB62BB6A002B24D01A
:103F6000BB6A5A1EFB6A9A63FB6A1B68002B04D16A
:103F700001F012FA0246FB6A9A60FB6A1B69002B89
:103F80000FD0FB6A1033184600F0D2FE0346002B18
:103F900007D0544B4FF080521A60BFF34F8FBFF3DE
:103FA0006F8F02F097F9012397E03B68002B11D146
:103FB0003B6B002B0AD04FF0500383F31188BFF303
:103FC0006F8FBFF34F8F7B6100BFFEE702F082F976
:103FD000002382E07B6B002B06D107F10C0318460F
:103FE00000F00AFF01237B6302F074F900F07CFC0F
:103FF00002F040F9FB6A93F844305BB2B3F1FF3F43
:1040000003D1FB6A002283F84420FB6A93F8453011
:104010005BB2B3F1FF3F03D1FB6A002283F8452076
:1040200002F058F93A4607F10C031146184600F021
:10403000F9FE0346002B32D1F86A00F04FF903462F
:10404000002B26D0FB6A1B68002B09D102F012F965
:10405000FB6A9B68184601F047F8386302F03AF9AA
:10406000FB6A24333A681146184600F011FEF86ADC
:1040700000F0E2F800F046FC0346002B7FF468AF46
:10408000184B4FF080521A60BFF34F8FBFF36F8F02
:104090005EE7F86A00F0D0F800F034FC58E7F86A00
:1040A00000F0CAF800F02EFCF86A00F017F9034699
:1040B000002B3FF44DAF3B6B002B0DD002F0DAF834
:1040C000F86A00F011F87862FB6A9B68796A184612
:1040D00001F0E0F802F0FEF8002318463837BD463C
:1040E00080BD00BF04ED00E080B485B000AF786013
:1040F0007B685B6A002B06D07B681B6B1B68C3F177
:104100003803FB6001E00023FB60FB6818461437AE
:10411000BD465DF8047B704780B586B000AFF8609F
:10412000B9607A6000237B61FB689B6B3B61FB6835
:104130001B6C002B0DD1FB681B68002B4DD1FB685D
:104140009B68184601F038F87861FB6800229A6095
:1041500043E07B68002B19D1FB685868FB681B6C37
:104160001A46B96802F074FBFB685A68FB681B6C5E
:104170001A44FB685A60FB685A68FB689B689A425D
:104180002BD3FB681A68FB685A6026E0FB68D86886
:10419000FB681B6C1A46B96802F05AFBFB68DA68C8
:1041A000FB681B6C5B421A44FB68DA60FB68DA68E8
:1041B000FB681B689A4207D2FB689A68FB681B6C15
:1041C0005B421A44FB68DA607B68022B05D13B69CD
:1041D000002B02D03B69013B3B613B695A1CFB68E9
:1041E0009A637B6918461837BD4680BD80B582B09A
:1041F00000AF786039607B681B6C002B18D07B683F
:10420000DA687B681B6C1A447B68DA607B68DA6862
:104210007B689B689A4203D37B681A687B68DA6084
:104220007B68D9687B681B6C1A46386802F010FB03
:1042300000BF0837BD4680BD80B584B000AF786050
:1042400002F018F87B6893F84530FB7311E07B6847
:104250005B6A002B12D07B682433184600F068FD9F
:104260000346002B01D000F03FFEFB7B013BDBB29D
:10427000FB7397F90F30002BE9DC00E000BF7B688F
:10428000FF2283F8452002F025F801F0F3FF7B6858
:1042900093F84430BB7311E07B681B69002B12D08C
:1042A0007B681033184600F043FD0346002B01D015
:1042B00000F01AFEBB7B013BDBB2BB7397F90E30FB
:1042C000002BE9DC00E000BF7B68FF2283F844207C
:1042D00002F000F800BF1037BD4680BD80B584B045
:1042E00000AF786001F0C6FF7B689B6B002B02D1AA
:1042F0000123FB6001E00023FB6001F0EBFFFB68A2
:1043000018461037BD4680BD80B584B000AF7860D8
:1043100001F0B0FF7B689A6B7B68DB6B9A4202D13D
:104320000123FB6001E00023FB6001F0D3FFFB6889
:1043300018461037BD4680BD80B485B000AF7860A8
:1043400039600023FB6014E00F4AFB6852F83330F9
:10435000002B0BD10C49FB683A6841F833200A4A1C
:10436000FB68DB0013447A685A6006E0FB6801339F
:10437000FB60FB68072BE7D900BF00BF1437BD46C1
:104380005DF8047B704700BFF400002080B586B064
:1043900000AFF860B9607A60FB687B6101F06AFF8A
:1043A0007B6993F844305BB2B3F1FF3F03D17B6983
:1043B000002283F844207B6993F845305BB2B3F167
:1043C000FF3F03D17B69002283F8452001F082FF83
:1043D0007B699B6B002B06D17B6924337A68B968B3
:1043E000184600F079FC7869FFF726FF00BF183700
:1043F000BD4680BD80B58EB004AFF860B9607A600C
:104400003B607B6B002B0AD14FF0500383F3118884
:10441000BFF36F8FBFF34F8F3B6200BFFEE7BB6BF5
:10442000002B0AD14FF0500383F31188BFF36F8F35
:10443000BFF34F8FFB6100BFFEE75C233B613B692D
:104440005C2B0AD04FF0500383F31188BFF36F8FBA
:10445000BFF34F8FBB6100BFFEE73B69BB6B002B17
:104460001ED07B6B002B1BD0BB6B7B627B6A7A6B95
:104470001A637B6A022283F85920002303937B6A24
:10448000029307F1140301933B6B00933B687A6836
:10449000B968F86800F050F8786A00F0DDF801E0DB
:1044A00000237B617B6918462837BD4680BD80B5F7
:1044B0008CB004AFF860B9603B601346FB80FB88AA
:1044C0009B00184601F0BEFB78617B69002B0ED083
:1044D0005C2001F0B7FBF861FB69002B03D0FB699E
:1044E0007A691A6305E0786901F078FC01E000233D
:1044F000FB61FB69002B17D0FB69002283F8592070
:10450000FA8800230393FB690293FB6A0193BB6A59
:1045100000933B68B968F86800F00EF8F86900F09D
:104520009BF80123BB6102E04FF0FF33BB61BB6925
:1045300018462037BD4680BD80B588B000AFF86012
:10454000B9607A603B603B6B186B7B689B001A46D6
:10455000A52102F051F93B6B1A6B7B6803F1804394
:10456000013B9B001344BB61BB6923F00703BB61A4
:10457000BB6903F00703002B0AD04FF0500383F30D
:104580001188BFF36F8FBFF34F8F7B6100BFFEE7D2
:10459000BB68002B1FD00023FB6112E0BA68FB69E7
:1045A000134419783A6BFB69134434330A461A7082
:1045B000BA68FB6913441B78002B06D0FB690133F2
:1045C000FB61FB690F2BE9D900E000BF3B6B0022C8
:1045D00083F8432003E03B6B002283F83420BB6A5E
:1045E000372B01D93723BB623B6BBA6ADA623B6B6C
:1045F000BA6ADA643B6B00221A653B6B04331846D7
:10460000FEF7E8FF3B6B18331846FEF7E3FF3B6B02
:104610003A6B1A61BB6AC3F138023B6B9A613B6B20
:104620003A6B5A623B6B00225A653B6B002283F85F
:1046300058203A68F968B86901F0EEFC02463B6B15
:104640001A60FB6A002B02D0FB6A3A6B1A6000BF4B
:104650002037BD4680BD000080B582B000AF7860D5
:1046600001F008FE2D4B1B6801332C4A13602C4BC4
:104670001B68002B09D12A4A7B681360274B1B68F3
:10468000012B10D100F054FC0DE0264B1B68002BD1
:1046900009D1234B1B68DA6A7B68DB6A9A4202D82D
:1046A0001F4A7B681360204B1B6801331E4A13604E
:1046B0001D4B1A687B685A647B68DA6A1B4B1B685F
:1046C0009A4203D97B68DB6A184A13607B68DA6A0E
:1046D00013469B0013449B00154A1A447B6804331D
:1046E00019461046FEF783FF01F0F4FD0D4B1B68E1
:1046F000002B0ED00A4B1B68DA6A7B68DB6A9A4291
:1047000007D20C4B4FF080521A60BFF34F8FBFF3AC
:104710006F8F00BF0837BD4680BD00BF0806002070
:10472000340100201406002024060020100600207A
:104730003801002004ED00E080B584B000AF78605F
:1047400001F098FD7B68002B02D12C4B1B6800E028
:104750007B68FB60FB6804331846FEF7A5FFFB6827
:104760009B6A002B04D0FB6818331846FEF79CFFA9
:10477000234B1B680133224A1360204B1B68FA68E5
:104780009A420BD1FB68043319461E48FEF72FFFEF
:104790001D4B1B6801331C4A136009E01B4B1B684F
:1047A000013B1A4A1360F86800F030FC00F05EFC30
:1047B00001F090FD164B1B68002B1BD00F4B1B68A4
:1047C000FA689A4216D1134B1B68002B0AD04FF09F
:1047D000500383F31188BFF36F8FBFF34F8FBB601C
:1047E00000BFFEE70C4B4FF080521A60BFF34F8FB3
:1047F000BFF36F8F00BF1037BD4680BD340100206E
:1048000024060020DC050020F0050020080600201A
:10481000140600203006002004ED00E080B58AB0C8
:1048200004AF0023BB6000237B603A46391D07F1CB
:104830000803184601F0D2F939687B68BA68029219
:1048400001930023009300230A4621492148FFF7E2
:10485000D1FD0346204A13601F4B1B68002B02D07A
:1048600001237B6101E000237B617B69012B02D185
:1048700000F0FAFD78617B69012B16D14FF05003EF
:1048800083F31188BFF36F8FBFF34F8F3B6100BF7E
:10489000124B4FF0FF321A60114B01221A60114B7C
:1048A00000221A6001F044FC0EE07B69B3F1FF3F87
:1048B0000AD14FF0500383F31188BFF36F8FBFF31A
:1048C0004F8FFB6000BFFEE700BF1837BD4680BDBD
:1048D00098680008014F00082C06002028060020D8
:1048E000140600200C06002080B400AF044B1B68A7
:1048F0000133034A136000BFBD465DF8047B704777
:104900003006002080B584B000AF0023FB60002398
:10491000BB60424B1B68002B0AD14FF0500383F35E
:104920001188BFF36F8FBFF34F8F3B6000BFFEE76F
:1049300001F0A0FC394B1B68013B384A1360374B30
:104940001B68002B62D1364B1B68002B5ED02FE01A
:10495000344BDB68DB68FB60FB6818331846FEF7F6
:10496000A3FEFB6804331846FEF79EFEFB68DA6A76
:104970002D4B1B689A4203D9FB68DB6A2A4A1360F5
:10498000FB68DA6A13469B0013449B00274A1A44CB
:10499000FB68043319461046FEF729FEFB68DA6A05
:1049A000234B1B68DB6A9A4202D3224B01221A6016
:1049B0001C4B1B68002BCBD1FB68002B01D000F0F7
:1049C00055FB1D4B1B687B607B68002B10D000F0F3
:1049D00047F80346002B02D0164B01221A607B6871
:1049E000013B7B607B68002BF1D1134B00221A60E6
:1049F000104B1B68002B09D00123BB600F4B4FF0FD
:104A000080521A60BFF34F8FBFF36F8F01F062FCCB
:104A1000BB6818461037BD4680BD00BF3006002079
:104A200008060020C80500201006002038010020DC
:104A3000340100201C0600201806002004ED00E0D0
:104A400080B483B000AF054B1B687B607B68184661
:104A50000C37BD465DF8047B704700BF0C06002094
:104A600080B586B000AF00237B614F4B1B68002BE5
:104A700040F08F804D4B1B6801333B614B4A3B69D3
:104A800013603B69002B20D1494B1B681B68002B2E
:104A90000AD04FF0500383F31188BFF36F8FBFF339
:104AA0004F8F3B6000BFFEE7414B1B68FB60414BF3
:104AB0001B683F4A13603F4AFB6813603E4B1B680C
:104AC00001333D4A136000F0D1FA3C4B1B683A6950
:104AD0009A4249D3364B1B681B68002B04D1374BD5
:104AE0004FF0FF321A603FE0314B1B68DB68DB6838
:104AF000BB60BB685B687B603A697B689A4203D2A3
:104B00002E4A7B6813602FE0BB6804331846FEF71B
:104B1000CBFDBB689B6A002B04D0BB6818331846DA
:104B2000FEF7C2FDBB68DA6A254B1B689A4203D9BF
:104B3000BB68DB6A224A1360BB68DA6A13469B00D3
:104B400013449B001F4A1A44BB680433194610469D
:104B5000FEF74DFDBB68DA6A1B4B1B68DB6A9A42A5
:104B6000B8D301237B61B5E7174B1B68DA6A154997
:104B700013469B0013449B000B441B68012B01D977
:104B800001237B61114B1B68002B07D001237B6144
:104B900004E00F4B1B6801330D4A13607B69184614
:104BA0001837BD4680BD00BF300600200C0600202F
:104BB000C0050020C4050020200600202806002093
:104BC0001006002038010020340100201C060020BF
:104BD0001806002080B485B000AF284B1B68002B5E
:104BE00003D0274B01221A6041E0254B00221A60B6
:104BF000244B1B68FB6010E0FB68002B0AD14FF0D0
:104C0000500383F31188BFF36F8FBFF34F8F7B6027
:104C100000BFFEE7FB68013BFB601B49FA681346D7
:104C20009B0013449B000B441B68002BE4D0FA68E4
:104C300013469B0013449B00134A1344BB60BB689C
:104C40005B685A68BB685A60BB685A68BB680833BF
:104C50009A4204D1BB685B685A68BB685A60BB68FB
:104C60005B68DB68094A1360064AFB68136000BF93
:104C70001437BD465DF8047B704700BF3006002046
:104C80001C060020100600203801002034010020FE
:104C900080B584B000AF786039607B68002B0AD1A2
:104CA0004FF0500383F31188BFF36F8FBFF34F8F23
:104CB000FB6000BFFEE7074B1B6818331946786896
:104CC000FEF7B9FC0121386800F07AFB00BF10370D
:104CD000BD4680BD3401002080B586B000AFF860CD
:104CE000B9607A60FB68002B0AD14FF0500383F360
:104CF0001188BFF36F8FBFF34F8F7B6100BFFEE75B
:104D00000A4B1B6818331946F868FEF770FC7B687D
:104D1000002B02D04FF0FF33BB607968B86800F019
:104D20004FFB00BF1837BD4680BD00BF34010020D7
:104D300080B586B000AF78607B68DB68DB683B617C
:104D40003B69002B0AD14FF0500383F31188BFF366
:104D50006F8FBFF34F8FFB6000BFFEE73B691833D7
:104D60001846FEF7A1FC1E4B1B68002B1DD13B69AA
:104D700004331846FEF798FC3B69DA6A194B1B6846
:104D80009A4203D93B69DB6A164A13603B69DA6AC7
:104D900013469B0013449B00134A1A443B69043397
:104DA00019461046FEF723FC05E03B691833194607
:104DB0000E48FEF71CFC3B69DA6A0D4B1B68DB6A88
:104DC0009A4205D901237B610A4B01221A6001E056
:104DD00000237B617B6918461837BD4680BD00BF44
:104DE000300600201006002038010020C8050020F1
:104DF000340100201C06002080B483B000AF78602E
:104E0000064B1A687B681A60054B1A687B685A6003
:104E100000BF0C37BD465DF8047B704720060020BC
:104E20000C06002080B588B000AF786039607B68E0
:104E3000002B0AD14FF0500383F31188BFF36F8F1B
:104E4000BFF34F8F3B6100BFFEE73B68002B0AD1E9
:104E50004FF0500383F31188BFF36F8FBFF34F8F71
:104E6000FB6000BFFEE701F005FA1D4B1B68BB614C
:104E70007B685B68BA69D31A7B613B681B68B3F1D6
:104E8000FF3F02D10023FB6123E07B681A68154BCA
:104E90001B689A4207D07B685B68BA699A4202D362
:104EA0000123FB6115E03B681B687A699A420BD2CB
:104EB0003B681A687B69D21A3B681A607868FFF70A
:104EC0009BFF0023FB6104E03B6800221A60012382
:104ED000FB6101F0FFF9FB6918462037BD4680BD34
:104EE0000C0600202006002080B400AF034B0122F6
:104EF0001A6000BFBD465DF8047B70471C060020A9
:104F000080B582B000AF786000F052F8064B1B68A5
:104F1000012BF9D9054B4FF080521A60BFF34F8F28
:104F2000BFF36F8FF0E700BF3801002004ED00E011
:104F300080B582B000AF00237B600CE07A68134636
:104F40009B0013449B00124A13441846FEF722FBB1
:104F50007B6801337B607B68372BEFD90D48FEF708
:104F600019FB0D48FEF716FB0C48FEF713FB0C4827
:104F7000FEF710FB0B48FEF70DFB0B4B054A1A60C2
:104F80000A4B054A1A6000BF0837BD4680BD00BF06
:104F90003801002098050020AC050020C80500203D
:104FA000DC050020F4050020C0050020C405002019
:104FB00080B582B000AF19E001F05CF9104BDB68FE
:104FC000DB687B607B6804331846FEF76DFB0D4B96
:104FD0001B68013B0B4A13600B4B1B68013B0A4AE1
:104FE000136001F077F9786800F010F8064B1B6841
:104FF000002BE1D100BF00BF0837BD4680BD00BF18
:10500000DC05002008060020F005002080B584B0F3
:1050100000AF78607B6893F85930002B08D17B682B
:105020001B6B184600F0DAFE786800F0D7FE18E037
:105030007B6893F85930012B03D1786800F0CEFEDD
:105040000FE07B6893F85930022B0AD04FF05003E1
:1050500083F31188BFF36F8FBFF34F8FFB6000BFE7
:10506000FEE700BF1037BD4680BD000080B483B0AE
:1050700000AF0C4B1B681B68002B04D10A4B4FF090
:10508000FF321A6008E0074B1B68DB68DB687B6057
:105090007B685B68044A136000BF0C37BD465DF84F
:1050A000047B7047C00500202806002080B483B030
:1050B00000AF0B4B1B68002B02D101237B6008E083
:1050C000084B1B68002B02D102237B6001E0002308
:1050D0007B607B6818460C37BD465DF8047B7047E3
:1050E000140600203006002080B584B000AF786040
:1050F0007B68BB600023FB607B68002B51D0BB68E2
:10510000DA6A2A4B1B68DB6A9A4241D2BB689B6908
:10511000002B06DB254B1B68DB6AC3F13802BB683A
:105120009A61BB685969BB68DA6A13469B001344ED
:105130009B001F4A1344994222D1BB68043318468E
:10514000FEF7B2FA194B1B68DA6ABB68DA62BB6811
:10515000DA6A184B1B689A4203D9BB68DB6A154AA6
:105160001360BB68DA6A13469B0013449B00104A25
:105170001A44BB68043319461046FEF738FA04E0B7
:105180000A4B1B68DA6ABB68DA620123FB6008E03D
:10519000BB68DA6C054B1B68DB6A9A4201D20123BB
:1051A000FB60FB6818461037BD4680BD3401002007
:1051B000380100201006002080B586B000AF78606E
:1051C0007B683B6100237B617B68002B56D02E4BB4
:1051D0001B683A699A420AD04FF0500383F3118852
:1051E000BFF36F8FBFF34F8FFB6000BFFEE73B69DC
:1051F0001B6D002B0AD14FF0500383F31188BFF3CE
:105200006F8FBFF34F8FBB6000BFFEE73B691B6D25
:105210005A1E3B691A653B69DA6A3B69DB6C9A4244
:105220002CD03B691B6D002B28D13B6904331846F9
:10523000FEF73AFA3B69DA6C3B69DA623B69DB6A92
:10524000C3F138023B699A613B69DA6A0F4B1B680C
:105250009A4203D93B69DB6A0C4A13603B69DA6AFC
:1052600013469B0013449B00094A1A443B690433CC
:1052700019461046FEF7BBF901237B617B6918468E
:105280001837BD4680BD00BF340100201006002045
:105290003801002080B588B000AF786039607B6845
:1052A000BB6101237B617B68002B6AD0BB691B6DEE
:1052B000002B0AD14FF0500383F31188BFF36F8F97
:1052C000BFF34F8FFB6000BFFEE7BB69DB6C3A6842
:1052D0009A4202D93B68FB6102E0BB69DB6CFB616F
:1052E000BB69DB6AFA699A424BD0BB691B6D7A696C
:1052F0009A4246D1254B1B68BA699A420AD14FF0AF
:10530000500383F31188BFF36F8FBFF34F8FBB60E0
:1053100000BFFEE7BB69DB6A3B61BB69FA69DA6221
:10532000BB699B69002B04DBFB69C3F13802BB69D5
:105330009A61BB6959693A6913469B0013449B0003
:10534000134A134499421CD1BB6904331846FEF733
:10535000ABF9BB69DA6A0F4B1B689A4203D9BB6988
:10536000DB6A0C4A1360BB69DA6A13469B0013447C
:105370009B00074A1A44BB69043319461046FEF7DE
:1053800036F900BF2037BD4680BD00BF3401002084
:10539000380100201006002080B400AF074B1B68C6
:1053A000002B04D0054B1B681A6D01321A65034BA4
:1053B0001B681846BD465DF8047B70473401002029
:1053C00080B584B000AF78603960214B1B68FB600A
:1053D000204B1B6804331846FEF766F97B68B3F16F
:1053E000FF3F0AD13B68002B07D01A4B1B680433E0
:1053F00019461948FEF7FBF826E0FA687B68134463
:10540000BB60144B1B68BA685A60BA68FB689A4262
:1054100009D2124B1A680F4B1B6804331946104609
:10542000FEF709F910E00E4B1A680A4B1B680433AB
:1054300019461046FEF7FFF80A4B1B68BA689A42F5
:1054400002D2084ABB68136000BF1037BD4680BD5A
:105450000C06002034010020F4050020C4050020C3
:10546000C00500202806002080B58AB004AF0023C4
:105470007B6100F063FB1C4B1B68002B21D00023D9
:10548000FB600023BB603A1D07F1080107F10C0324
:10549000184600F0BDFB7968BB68FA680292019378
:1054A0002923009300230A4610491148FEF7A2FF62
:1054B0000346104A13600F4B1B68002B01D00123D9
:1054C0007B617B69002B0AD14FF0500383F3118875
:1054D000BFF36F8FBFF34F8F3B6100BFFEE77B6968
:1054E00018461837BD4680BD64060020A068000835
:1054F000E55600086806002080B588B002AFF86065
:10550000B9607A603B602C2000F09CFB78617B697D
:10551000002B0DD07B69002283F828207B69019342
:105520003B6A00933B687A68B968F86800F005F850
:105530007B6918461837BD4680BD80B586B000AF80
:10554000F860B9607A603B60BB68002B0AD14FF00D
:10555000500383F31188BFF36F8FBFF34F8F7B61CD
:1055600000BFFEE77B6A002B1ED000F0E7FA7B6AE3
:10557000FA681A607B6ABA689A617B6A3A68DA618B
:105580007B6A3A6A1A627B6A04331846FEF722F88D
:105590007B68002B08D07B6A93F8283043F0040323
:1055A000DAB27B6A83F8282000BF1837BD4680BD79
:1055B00080B58AB000AFF860B9607A603B600023C4
:1055C0007B62FB68002B0AD14FF0500383F31188F4
:1055D000BFF36F8FBFF34F8F3B6200BFFEE71A4BE5
:1055E0001B68002B2AD0BB683B617B687B61FB6832
:1055F000BB61BB68052B18DCFFF758FD0346022B87
:1056000009D1114B186807F1100100233A6BFEF71E
:10561000E5F9786212E00C4B186807F110010023DD
:105620000022FEF7DBF9786208E0074B186807F103
:10563000100100233A68FEF7CFFA78627B6A1846B9
:105640002837BD4680BD00BF6406002080B588B005
:1056500002AF78603960224B1B68DB68DB687B61D6
:105660007B6904331846FEF71FF87B6993F82830EE
:1056700003F00403002B22D07B699A697B68D11860
:105680007B683A68786900F0D1F80346002B1FD098
:105690000023009300237A6800217869FFF788FFD0
:1056A00038613B69002B13D14FF0500383F311880D
:1056B000BFF36F8FBFF34F8FFB6000BFFEE77B69C7
:1056C00093F8283023F00103DAB27B6983F82820AD
:1056D0007B691B6A7869984700BF1837BD4680BD53
:1056E0005C06002080B584B000AF786007F1080345
:1056F000184600F057F8F860BB681946F86800F0E3
:1057000003F800F0D5F8F1E780B584B000AF786019
:105710003960FFF7E9F807F10803184600F066F86A
:10572000F860BB68002B30D13B68002B0AD17A6847
:10573000FB689A4206D8FFF7E5F8F9687868FFF742
:1057400085FF24E03B68002B08D0134B1B681B68C7
:10575000002B01D1012300E000233B600F4B1868B0
:105760007A68FB68D31A3A681946FEF70FFEFFF70E
:10577000C9F80346002B0AD1094B4FF080521A603A
:10578000BFF34F8FBFF36F8F01E0FFF7BBF800BF90
:105790001037BD4680BD00BF6006002064060020B3
:1057A00004ED00E080B485B000AF78600E4B1B685C
:1057B0001B68002B01D1012200E000227B681A60E7
:1057C0007B681B68002B05D1074B1B68DB681B68D7
:1057D000FB6001E00023FB60FB6818461437BD4600
:1057E0005DF8047B704700BF5C06002080B584B084
:1057F00000AF7860FFF724F9F8600B4B1B68FA687C
:105800009A4205D200F036F97B6801221A6002E064
:105810007B6800221A60044AFB681360FB68184624
:105820001037BD4680BD00BF6C06002080B586B035
:1058300000AFF860B9607A603B6000237B61FB6871
:10584000BA685A60FB68FA681A61BA687B689A425B
:1058500012D87A683B68D21AFB689B699A4202D3D5
:1058600001237B611BE0104B1A68FB680433194667
:105870001046FDF7E0FE12E07A683B689A4206D2D5
:10588000BA683B689A4202D301237B6107E0074B69
:105890001A68FB68043319461046FDF7CCFE7B6995
:1058A00018461837BD4680BD600600205C06002003
:1058B00080B58EB002AFCAE07B68002B18DA3B1DC2
:1058C0000433FB62FB6A002B0AD14FF0500383F3D1
:1058D0001188BFF36F8FBFF34F8FFB6100BFFEE7EF
:1058E000FB6A1B68FA6A5068FA6A92681146984720
:1058F0007B68002BC0F2AB80FB68BB62BB6A5B6954
:10590000002B04D0BB6A04331846FDF7CDFE3B469E
:105910001846FFF76BFF78627B68092B00F29680D0
:1059200001A252F823F000BF515900085159000854
:1059300051590008C5590008D9590008235A0008D0
:105940005159000851590008C5590008D959000893
:10595000BB6A93F8283043F00103DAB2BB6A83F8DC
:105960002820BA68BB6A9B69D118BB687A6AB86A92
:10597000FFF75CFF0346002B69D0BB6A1B6AB86A5D
:105980009847BB6A93F8283003F00403002B5ED0DD
:10599000BA68BB6A9B691A44002300930023002164
:1059A000B86AFFF705FE38623B6A002B4FD14FF013
:1059B000500383F31188BFF36F8FBFF34F8FBB6129
:1059C00000BFFEE7BB6A93F8283023F00103DAB288
:1059D000BB6A83F828203AE0BB6A93F8283043F08A
:1059E0000103DAB2BB6A83F82820BA68BB6A9A61FD
:1059F000BB6A9B69002B0AD14FF0500383F31188D7
:105A0000BFF36F8FBFF34F8F7B6100BFFEE7BB6AB1
:105A10009A697B6AD1187B6A7A6AB86AFFF706FFCF
:105A200015E0BB6A93F8283003F00203002B03D182
:105A3000B86A00F0D3F90AE0BB6A93F8283023F083
:105A40000103DAB2BB6A83F8282000E000BF084BEC
:105A50001B68391D00221846FEF75AF90346002B31
:105A60007FF42AAF00BF00BF3037BD4680BD00BF06
:105A70006406002080B588B002AF48E02D4B1B685B
:105A8000DB681B683B612B4B1B68DB68DB68FB60DA
:105A9000FB6804331846FDF707FEFB681B6AF868CD
:105AA0009847FB6893F8283003F00403002B2ED0AE
:105AB000FB689B693A691344BB60BA683B699A42C8
:105AC0000ED9FB68BA685A60FB68FA681A61194B0C
:105AD0001A68FB68043319461046FDF7ACFD16E062
